:020000040800F2
:100000006006002031020008390200083B020008A7
:100010003D0200083F020008410200080000000005
:100020000000000000000000000000004302000883
:1000300045020008000000004702000849020008CD
:100040004B0200084B0200084B0200084B0200085C
:100050004B0200084B0200084B0200084B0200084C
:100060004B0200084B0200084B0200084B0200083C
:100070004B0200084B0200084B0200084B0200082C
:100080004B0200084B0200084B0200084B0200081C
:100090004B0200084B0200084B0200084B0200080C
:1000A0004B0200084B0200084B0200084B020008FC
:1000B0004B0200084B0200084B0200084B020008EC
:1000C0004B0200084B0200084B0200084B020008DC
:1000D0004B0200084B0200084B0200084B020008CC
:1000E0004B0200084B0200084B0200084B020008BC
:1000F0004B0200084B0200084B0200084B020008AC
:100100004B0200084B0200084B0200084B0200089B
:100110004B0200084B0200084B0200084B0200088B
:100120004B0200084B0200084B0200084B0200087B
:100130004B0200084B0200084B0200084B0200086B
:100140004B0200084B0200084B0200084B0200085B
:100150004B0200084B0200084B0200084B0200084B
:100160004B0200084B0200084B0200084B0200083B
:100170004B0200084B0200084B0200080000000080
:100180004B0200084B0200084B0200084B0200081B
:100190004B0200084B0200084B0200084B0200080B
:1001A0004B0200084B0200084B02000800F002F866
:1001B00000F02EF80AA090E8000C82448344AAF1D3
:1001C0000107DA4501D100F023F8AFF2090EBAE8D1
:1001D0000F0013F0010F18BFFB1A43F0010318477B
:1001E000B4030000C40300000023002400250026FF
:1001F000103A28BF78C1FBD8520728BF30C148BF8A
:100200000B6070471FB500F0B0F91FBD10B510BDF1
:1002100000F031F81146FFF7F5FF00F097F900F014
:100220004FF803B4FFF7F2FF03BC00F057F80000EB
:100230000948804709480047FEE7FEE7FEE7FEE77A
:10024000FEE7FEE7FEE7FEE7FEE7FEE704480549B6
:10025000054A064B7047000031050008AD01000853
:100260006000002060060020600200206002002084
:10027000704770477047754600F02CF8AE46050091
:100280006946534620F00700854618B020B5FFF7B1
:10029000DDFFBDE820404FF000064FF000074FF0B3
:1002A00000084FF0000BAC46ACE8C009ACE8C00950
:1002B000ACE8C009ACE8C00921F007018D467047E1
:1002C00010B50446AFF300802046BDE81040FFF7AC
:1002D000A8BF000000487047000000200149182016
:1002E000ABBEFEE726000200704700002DE9F04F8C
:1002F00083B000F13E4202F1FF7243F6004E4FEA36
:10030000B22242F20047C4F2010E0192C4F2020787
:100310000A224FF0010B00254FF000084FF00009B2
:10032000B84208BF092200920AE000BF09F10109A2
:1003300008F10408B9F1100F05F1020500F0A180E1
:100340000F680BFA09F417EA040CEFD0D1F804A0F7
:10035000BAF1120F15D80BFA0AF717F0061F10D0D2
:1003600087680322CE68AA4027EA0202AE403243E1
:1003700082604268A243CAF3001404FA09F42243DB
:100380004260C26803238E6803FA05F4A2436FEA51
:10039000040B06FA05F422434AF01004122CC26042
:1003A0000FD16FF0030202EA5902024408F01C0662
:1003B0000F23146A03FA06F70B69BC43B3402343C7
:1003C000136202684B6802EA0B0203F00304AC40BC
:1003D0002243DB004FF0010B0260A7D5002243F659
:1003E00044030292C4F202031A684FF6084A42F428
:1003F00080421A601A68CFF6FF7A02F480420292B5
:10040000029A29F00302724452F80A3008F00C04F0
:100410000F26A640019FB343009E092F38BF3E46DA
:1004200006FA04F4234342F80A30DEF800204B6851
:1004300042EA0C04DE0358BF22EA0C04CEF8004066
:10044000DEF804209E0342EA0C0458BF22EA0C04A2
:10045000CEF80440DEF80820DE0242EA0C0458BF61
:1004600022EA0C04CEF8084043F60C44C4F201041E
:1004700022689B0242EA0C0358BF22EA0C03236065
:1004800054E703B0BDE8F08F002A08BF090481617A
:100490007047000080B586B0002043F6300101901F
:1004A000C4F202010A6842F040020A60096801F0E1
:1004B0004001019101994FF4C04101910121029144
:1004C0000221CDE9031041F60000C4F2020001A9A7
:1004D000FFF70CFF002006B080BD000010B501281A
:1004E0000ED840F28451C0F6000101EBC00251F871
:1004F0003000918800220024FFF7C6FF204610BD7F
:100500004FF0FF34204610BD012884BF4FF0FF306C
:10051000704780B540F28451C0F6000101EBC00283
:1005200051F8300091880122FFF7AEFF002080BD16
:100530004EF68850CEF20000016841F4700101606F
:100540004FF0006140F8801C70470000FFF7A2FFE9
:100550000020FFF7D9FF0120FFF7D6FF0020FFF7AB
:10056000BDFF0120FFF7BAFFF2E7F1EE100A4FF6E8
:10057000FF71C0F2C03120EA010040F04070E1EEAE
:10058000100A7047001802400020000000180240C6
:1005900000400000A40500080000002060060000E4
:0405A000E801000866
:0400000508000231BC
:00000001FF
