:020000040800F2
:10800000D80600204D820008579200080B8F000808
:1080100055920008438400089D9400080000000069
:108020000000000000000000000000005B9200085B
:108030004584000800000000599200085D92000885
:10804000678200086782000867820008678200086C
:108050006782000867820008498400086782000878
:10806000678200086782000867820008678200084C
:10807000678200086782000867820008678200083C
:10808000678200086782000867820008678200082C
:10809000678200086782000867820008678200081C
:1080A000678200086782000867820008678200080C
:1080B00067820008678200086782000867820008FC
:1080C00067820008678200086782000867820008EC
:1080D00067820008678200086782000867820008DC
:1080E00067820008678200086782000867820008CC
:1080F00067820008678200086782000867820008BC
:1081000067820008678200086782000867820008AB
:10811000678200086782000867820008678200089B
:10812000678200086782000867820008678200088B
:10813000678200086782000867820008678200087B
:10814000678200086782000867820008678200086B
:10815000678200086782000867820008678200085B
:10816000678200086782000867820008678200084B
:10817000678200086782000867820008000000002C
:10818000678200086782000867820008678200082B
:10819000678200086782000867820008678200081B
:1081A00067820008678200086782000800F002F812
:1081B00000F03CF80AA090E8000C82448344AAF145
:1081C0000107DA4501D100F031F8AFF2090EBAE843
:1081D0000F0013F0010F18BFFB1A43F001031847FB
:1081E0006813000088130000103A24BF78C878C1D3
:1081F000FAD8520724BF30C830C144BF04680C60AD
:10820000704700000023002400250026103A28BFF4
:1082100078C1FBD8520728BF30C148BF0B607047F8
:108220001FB501F07FF91FBD10B510BD00F0CFF8EC
:108230001146FFF7F5FF01F043F900F0EDF803B444
:10824000FFF7F2FF03BC00F0F5F800000948804793
:1082500009480047FEE7FEE7FEE7FEE7FEE7FEE728
:10826000FEE7FEE7FEE7FEE704480549054A064B40
:1082700070470000FD920008AD810008D800002082
:10828000D8060020D8020020D802002053EA020CB1
:1082900000F069802DE9F04B4FF00006002B1FBF66
:1082A000B3FA83F503FA05F424FA05F65E4012BF2B
:1082B0001643B2FA82F502FA05F4C5F120051EBF95
:1082C00022FA05FC44EA0C04203556EA044C4FEA35
:1082D000144418BF641C4FF000084FF0000990428E
:1082E00071EB030C39D3002919BFB1FA81F701FAF8
:1082F00007F6B0FA80F700FA07F6C7F120071EBFAD
:1083000020FA07FC46EA0C062037B6FBF4FCA7EB84
:108310000507103F07F01F0BCBF120060CFA0BFBF3
:108320002CFA06F644BFB3460026202FA4BF5E46B3
:108330004FF0000B5BEA060C08BF4FF0010B19EB86
:108340000B09ABFB027C48EB0608C01B06FB02CC0A
:108350000BFB03CC71EB0C01C1E70B460246414617
:108360004846BDE8F08B13B54FF000004FF0000118
:10837000AFF30080BDE81C4070474FF0000200B52D
:10838000134694469646203922BFA0E80C50A0E838
:108390000C50B1F12001BFF4F7AF090728BFA0E8E6
:1083A0000C5048BF0CC05DF804EB890028BF40F8B2
:1083B000042B08BF704748BF20F8022B11F0804FF4
:1083C00018BF00F8012B704770477047704775461B
:1083D00000F02CF8AE4605006946534620F0070031
:1083E000854618B020B5FFF73FFFBDE820404FF0AD
:1083F00000064FF000074FF000084FF0000B21F08F
:108400000701AC46ACE8C009ACE8C009ACE8C0095B
:10841000ACE8C0098D46704710B50446AFF3008044
:108420002046BDE81040FFF70ABF00000048704733
:108430007800002001491820ABBEFEE726000200AC
:108440007047FEE77047000010B50B4C207878B1FC
:108450005FF000024FF48041084800F039F92078BD
:1084600040B100202070BDE81040012000F00AB8A3
:108470000122EFE70120F5E720000020001802406C
:1084800070470000044910B50A68024202D0086033
:10849000FFF7F6FF10BD0000143C01402DE9F84F36
:1084A000DFF8F8A1002201240AF1040B03254FF0A4
:1084B0000F090BF1040E00BF0B6804FA02F63340FB
:1084C000B34270D10F7907F00307012F01D0022FBB
:1084D00016D187684FEA420805FA08FC27EA0C071C
:1084E000D1F80CC00CFA08FC4CEA070CC0F808C024
:1084F0004768B7430E79C6F3001696403E43466080
:108500000E79F643B6070AD0C7684FEA420C05FA5F
:108510000CF6B7438E6806FA0CF63E43C6600E7939
:1085200006F00306022E10D1D60800EB8608D8F814
:10853000206057074FEAD76C09FA0CF7BE430F6962
:1085400007FA0CF73743C8F8207006684FEA420C68
:1085500005FA0CF7BE430F7907F0030707FA0CF78B
:10856000374307604E6816F4403F1CD04C4E3768C6
:1085700047F480473760366822F0030706F48046E8
:108580000096484E07EB060CDCF8086897073F0F8B
:1085900009FA07F826EA0806DFF80C81404503D1FE
:1085A0004FF0000841E072E0DFF80081404502D161
:1085B0004FF0010839E0DFF8F880404502D14FF074
:1085C000020832E0DFF8EC80404502D14FF00308AA
:1085D0002BE0DFF8E480404502D14FF0040824E0AE
:1085E000DFF8D880404502D14FF005081DE0DFF8E4
:1085F000D080404502D14FF0060816E0DFF8C48075
:10860000404502D14FF007080FE0DFF8BC8040453D
:1086100002D14FF0080808E0DFF8B080404502D1F1
:108620004FF0090801E04FF00A0808FA07F848EA95
:108630000608CCF80888DAF800605746D1F804C07C
:108640009E435FEACC3C00D51E433E60DBF80060F1
:108650005F46D1F804C09E435FEA8C3C00D51E43C0
:108660003E60DEF800607746D1F804C09E435FEAC2
:10867000CC2C00D51E433E60084F0C373E68D1F825
:1086800004C09E435FEA8C2C00D51E433E60521C02
:10869000102AFFF411AFBDE8F88F0000003C014044
:1086A0004438024000300140000002400004024013
:1086B00000080240000C024000100240001402407A
:1086C00000180240001C024000200240002402402A
:1086D0000AB1816170470904FBE700000148806826
:1086E000704700002400002002488168027811448D
:1086F00081607047240000200B4810B5016841F4E8
:1087000000710160016841F480610160016841F419
:1087100080710160032000F071F8002000F006F87D
:1087200000F024F8002010BD003C024070B50D4D53
:1087300004464FF47A712878B1FBF0F00A490968D1
:10874000B1FBF0F000F00CFB48B9102C07D200226E
:108750002146501E00F032F800206C6070BD0120F0
:1087600070BD000024000020300000200B4882B0C3
:10877000016841F480410160006800F4804000908D
:108780000648001F016841F080510160006800F058
:1087900080500090072002B000F030B8443802400A
:1087A000002809DB00F01F020121914040098000F0
:1087B00000F1E020C0F8001170470000F0B40E4B4B
:1087C0001B680C46C3F30223C3F10705042D00D92F
:1087D0000425191D072901D2002300E0DB1E012614
:1087E00006FA05F1491E214099409E40761E16402A
:1087F0003143F0BC00F053BE0CED00E0064900F040
:10880000070208684FF6FF03184040EA0220034AB7
:1088100010430860704700000CED00E00000FA050E
:108820002DE9F0470E46050065D0DFF81481D8F831
:108830000000F7B200F00F00B04207D288F80070D5
:10884000D8F8000000F00F00B04254D128683D4C29
:10885000810712D5400703D5206840F4E05020601E
:108860002878000703D5206840F460402060206825
:10887000A96820F0F000084320602878C0072DD0B8
:10888000304968680839012812D0022813D003281B
:1088900011D00968890700292DDA216821F0030128
:1088A00001432160FFF71AFF814641F2883A0EE04A
:1088B00009688903EFE709688901ECE7FFF70EFF14
:1088C000A0EB0901514502D90320BDE8F0872068DB
:1088D000696800F00C00B0EB810FEFD1D8F8001000
:1088E000404601F00F01B14207D90770006800F05F
:1088F0000F00B04201D00120E7E72878400705D5F6
:108900002068E96820F4E0500843206028780007D8
:1089100006D52068296920F4604040EAC100206043
:1089200000F038F82168084AC1F30311515CC840CF
:108930000649086006480068FFF7F8FE0020C4E713
:10894000003C0240083802402E950008300000200C
:10895000280000200448054900680968044AC1F35A
:108960008221515CC8407047300000200838024026
:108970003E9500080448054900680968044AC1F3A7
:108980004231515CC8407047300000200838024036
:108990003E950008154810B5006810F00C02144808
:1089A00013D04110042A0FD0082A0ED10F4C241FD7
:1089B0002268236802F03F025B0207D52068C0F3FB
:1089C0008810A0FB010106E0084610BD2168C1F334
:1089D0008811A1FB00010023FFF758FC2168C1F3B7
:1089E0000141491C4900B0FBF1F010BD08380240BC
:1089F0000024F4002DE9F84F04006ED02078DFF851
:108A00004C93C007A9F104054AD009F1040001689C
:108A1000C1F38101012908D00068C0F38100022858
:108A20000AD1D9F80000400206D52868800337D55E
:108A300060680028E1D033E06068B0F5803F10D076
:108A4000B0F5A02F286810D020F480302860286866
:108A500020F4802028606068A8B1FFF73FFE06463A
:108A60000DE0286840F48030F4E740F4802028606E
:108A7000F7E700BFFFF732FE801B642873D8286831
:108A80008003F7D50CE0FFF729FE064605E000BF9E
:108A9000FFF724FE801B6428F0D828688003F7D4F1
:108AA0002078DFF8AC8280074FF0000A3ED5A74857
:108AB000001D016811F00C0F08D00068C0F38100A0
:108AC00002280BD1D9F80000400207D4286880079B
:108AD00016D5E068012800D112E033E1E068B8B1B2
:108AE0000120C8F80000FFF7F9FD064605E000BFC9
:108AF000FFF7F4FD801B0228C0D828688007F7D54F
:108B00002868216920F0F80040EAC10028600DE0E3
:108B1000C8F800A0FFF7E2FD064604E0FFF7DEFD1F
:108B2000801B02281FD828688007F7D42078000708
:108B300022D5864F87486169703771B10121016084
:108B4000FFF7CCFD064604E0FFF7C8FD801B0228B6
:108B500009D838688007F7D50EE0C0F800A0FFF705
:108B6000BDFD064605E082E0FFF7B8FD801B022848
:108B70007DD838688007F7D42078400768D5DFF8BB
:108B8000CCB100270BF13C0BDBF80000C0000BD48C
:108B9000DBF8001041F08051CBF80010DBF800004A
:108BA000012700F0805000906B4E3068C00510D453
:108BB000306840F480703060FFF790FD009005E071
:108BC000FFF78CFD0099401A022850D83068C00584
:108BD000F6D55E4EA0686C3601280FD005283068A7
:108BE00010D020F001003060306820F004003060C8
:108BF000A068B8B1FFF772FD00900FE0306840F058
:108C00000100F4E740F004003060F7E7FFF766FD8D
:108C10000099411A41F28830814266D83068800755
:108C2000F4D50EE0FFF75AFD009007E0FFF756FD80
:108C30000099411A41F28830814256D83068800745
:108C4000F4D42FB1DBF8001021F08051CBF80010E4
:108C5000A069C8B33D49091D0968C1F38101022912
:108C60004AD00228504607D0C8F8600000E03CE037
:108C7000FFF734FD04463BE04746C8F86000FFF7C5
:108C80002DFD064605E000BFFFF728FD801B0228EA
:108C90002BD828688001F7D4D4E907010843A16ADA
:108CA0002E4A490802EB0141626A41EA82110843F7
:108CB00094F82C1040EA0161C9F8001001203866D0
:108CC000FFF70CFD044606E03EE000BFFFF706FD9F
:108CD000001B022809D828688001F7D534E000BFBE
:108CE000FFF7FCFC001B022802D90320BDE8F88F27
:108CF00028688001F4D427E00128F7D0D9F80000D3
:108D0000E26900F4800191421CD1226A00F03F0127
:108D1000914217D147F6C071626A0140B1EB821FE0
:108D200010D1A26A4FF0FF3300F4403103EB52023E
:108D3000B1EB024F06D194F82C1000F07060B0EB4C
:108D4000016F01D00120D1E70020CFE704380240B5
:108D500000004742800E4742007000400000FFFFC5
:108D600010B5401EB0F1807F01D3012010BD4FF03F
:108D7000E02460610F21601700F091FB0020A061EA
:108D800007202061002010BD70B5040004D094F8C5
:108D90003D00002510B106E0012070BD84F83C5074
:108DA000204600F023F8242084F83D002068C168A4
:108DB00021F40051C160204600F0AEFA206801693C
:108DC00021F4904101612068416921F02A0141614B
:108DD0002068C16841F40051C1602564202084F8F6
:108DE0003D0084F83E00002070BD000010B586B044
:108DF000044614216846FFF7C0FA144920688842E7
:108E000021D113480021026842F01002026000687C
:108E100000F0100005900E481438026842F001027C
:108E20000260006800F0010005904FF4C0600090FF
:108E30000220CDE901010320039007200490694638
:108E40000448FFF72BFB06B010BD000000100140E6
:108E500044380240000002402DE9F843044690F8EF
:108E60003D001F4616460D4620284CD1C5B1BEB167
:108E700094F83C00012846D0012084F83C004FF0D3
:108E80000008C4F84080212084F83D00FFF726FC4C
:108E9000A6848146E684A068B0F5805F03D004E034
:108EA0000120BDE8F883206928B12E465FF0000557
:108EB00084F83C800EE00026FAE78021204600F08E
:108EC000B1FAA0B9AEB116F8010B21684860E08C88
:108ED000401EE084E08C4B464FF0000200970028D3
:108EE000EBD14FF04001204600F09CFA30B1032056
:108EF000D7E735F8020BC0F30800E6E7202084F836
:108F00003D000020CDE70220CBE7FEE72DE9F04F42
:108F100087B014216846FFF730FAC648002401687C
:108F200041F004010160016801F00401059101684C
:108F300041F020010160016801F020010591016804
:108F400041F080010160016801F080010591016834
:108F500041F001010160016801F001010591016822
:108F600041F002010160016801F002010591016810
:108F700041F040010160016801F040010591016884
:108F800041F010010160016801F0100105910168D4
:108F900041F0080101600068002200F0080005901F
:108FA0001621A548FFF794FB00228021A348FFF774
:108FB0008FFB00224FF44051A148FFF789FB0022AC
:108FC0004FF4C0419F48FFF783FB4FF63F00022557
:108FD000CDE900050320CDE90240DFF86C820C26C4
:108FE000694604964046FFF759FA4FF460700090C6
:108FF000CDE901540520CDE9034069464046FFF71D
:109000004DFA68020090CDE901540E27CDE90347DF
:1090100069464046FFF742FA03204FF00108CDE9C8
:109020000240CDE90085694604968348FFF736FA89
:1090300016200090CDE9018469467F480394FFF72C
:109040002DFA4FF48810CDF80080CDE9010469466F
:109050007A48FFF723FA48F206004FF49019CDE959
:109060000009694602947548FFF718FA41F658005E
:109070000090CDE90154CDE9034769466F48FFF7F9
:109080000DFA80200090CDE9018469466B48039475
:10909000FFF704FA2020CDE90009694602946648EA
:1090A000FFF7FCF903200090CDE901544FF0090AC5
:1090B000CDE9034A69466548FFF7F0F94FF0040926
:1090C000CDE90094694661480294FFF7E7F948F258
:1090D0003310CDE900050320CDE90240694604962E
:1090E0005848FFF7DBF94FF68370CDE90005032000
:1090F000CDE90240694604965548FFF7CFF94FF491
:1091000070600090CDE90154CDE9034769464F48AE
:10911000FFF7C4F94FF450400090CDE90154CDE978
:10912000034669464948FFF7B9F92803CDE9000429
:10913000694646480294FFF7B1F94CF20370CDE955
:1091400000050320CDE90240694604963C48FFF73C
:10915000A5F9A802CDE90004694639480294FFF751
:109160009DF9B0020090CDE901846946344803942A
:10917000FFF794F94FF40C600090CDE90154CDE96C
:10918000034769462F48FFF789F94FF4986000902C
:10919000CDE90154CDE9034769462748FFF77EF939
:1091A000280200904FF0120BCDE901B4CDE903493C
:1091B00069462148FFF772F9E8010090CDE901B452
:1091C000CDE9034969461D48FFF768F9482000903A
:1091D000CDE90154CDE9034769461948FFF75EF927
:1091E0004FF4A0500090CDE90154CDE9034A6946FF
:1091F0001448FFF753F9F0020090CDE90184694665
:1092000010480394FFF74AF96020CDE900050320D8
:10921000CDE90240694604960C48FFF73FF9002269
:1092200011460620FFF7CAFA0620FFF7B9FA07B081
:10923000BDE8F08F303802400008024000000240D4
:10924000000C0240001802400014024000040240DA
:1092500000100240FEE7FEE770477047FFF744BA90
:1092600030B593B030216846FFF787F814210CA879
:10927000FFF783F81F480024016841F08051016026
:10928000006800F0805011901B48016821F44041B3
:1092900041F4804101600068022500F440401190D3
:1092A0000120039010200490009506950820CDE938
:1092B00007403220099004200A9007200B9068464E
:1092C000FFF798FB08B172B6FEE70F20CDE90C0559
:1092D0004FF4C050CDE90E404FF4A0501090002143
:1092E0000CA8FFF79DFA002801D072B6FEE713B074
:1092F00030BD000040380240007000400448016862
:1093000041F47001016002490248803908607047E9
:1093100088ED00E00080000870B50446006801692F
:10932000E26821F44051114301612169A068E269BA
:1093300008436169114308432168CA6849F20C6314
:109340009A430243CA6020684169A26921F44071CE
:109350001143416131492068884202D03049884236
:1093600002D1FFF707FB01E0FFF7F4FAE2690023FF
:10937000192164253226B2F5004F626828D0A0FB7F
:109380000101930F9200FEF781FF0146B0FBF5F05B
:109390006FF01802504301EB800006EB0010B0FBA9
:1093A000F5F000F0F002B1FBF5F002EB0012B1FBBA
:1093B000F5F06FF01803584301EB800006EB001046
:1093C000B0FBF5F000F00F0021681044886070BD1C
:1093D000A0FB010192185B41FEF758FF0146B0FB6C
:1093E000F5F00201B1FBF5F06FF01803584301EB03
:1093F000800006EBC000B0FBF5F000F0F80002EBD7
:109400004002B1FBF5F0584301EB800006EBC000D1
:10941000B0FBF5F000F00700D6E7000000100140B7
:10942000001401402DE9F041984617460E460446C7
:10943000069D27E0681C25D02DB1FFF74FF9A0EB62
:109440000800A8421ED920680C3050E8001F21F403
:10945000D07140E80012002AF5D12068143050E89D
:10946000001F21F0010140E80012002AF5D1202060
:1094700084F83D0084F83E00002084F83C0003207E
:10948000BDE8F0812068006836EA000004D00020C2
:10949000B842CFD00020F3E70120F9E7FEE7090743
:1094A000090E002804DB00F1E02080F8001470476A
:1094B00000F00F0000F1E02080F8141D704700005C
:1094C000FFF71AF9FFF7CCFEFFF720FD134812490A
:1094D0000C2201604FF4E131416000218160C160E4
:1094E000C0E904128161C161FFF74EFC08B172B698
:1094F000FEE74FF0FF342346202209490748FFF7D3
:10950000ABFCFFF7EBF800F5FA7500BFFFF7E6F8E4
:10951000A842FBD9EFE70000001001403400002012
:10952000000000204FF04070E1EE100A704700008C
:109530000000000000000102030406070809000003
:1095400000000102030400006895000800000020EC
:1095500034000000E88100089C95000834000020D9
:10956000A40600000482000848656C6C6F772046F2
:10957000726F6D2055736572204170706C69636104
:1095800074696F6E200D0A000000000001000000E9
:0C95900010000000000000000024F400A7
:04000005080081ADC1
:00000001FF
